:09000000020BB590FE01E4F022B0
:10000B00020D1EEFFD7C006401700890032AE04492
:10001B0001800CED64024C700C90032AE054FEF04E
:10002B00E04408F022EF6403700B90032AE054FEC7
:06003B00F0E054F7F02292
:10004300020E42A3E0FF7C007D0A1204E890034CF9
:10005300EEF0A3EFF090034CE0FAA3E0FB7C007D0D
:1000630064FFAE021204E8A3EEF0A3EFF07C007D80
:100073000AAF03AE021204E87C007D0A1204E8A36F
:10008300ECF0FAA3EDF0FB90034CE0FEA3E0FF7C61
:10009300007D0A1204E8900352ECF0A3EDF0900304
:1000A3004EE0FEA3E0FFAD03AC02900352E0FAA3DF
:1000B300E0FBA2AF9202C2AFC203121053EE700F65
:1000C300EF14700B90032AE04402F0E04404F0ECD8
:1000D30060030201EFEDB40B0040030201EF900057
:1000E300E8F828287302010902012702012C020102
:1000F3004102015602016702017B0201930201A43E
:100103000201C00201D890032BE04401F0E0440255
:10011300F0E04404F0E04408F0E04410F0E0442050
:10012300F00201EF90032B806E90032BE04401F06B
:10013300E04402F0E04408F0E044100201EA9003D6
:100143002BE04401F0E04402F0E04404F0E0440812
:100153000201EA90032BE04402F0E04404F0E0449F
:10016300200201EA90032BE04401F0E04404F0E0B4
:100173004408F0E04420806F90032BE04401F0E05A
:100183004404F0E04408F0E04410F0E044208057D9
:1001930090032BE04401F0E04402F0E04404F080DB
:1001A3004B90032BE04401F0E04402F0E04404F000
:1001B300E04408F0E04410F0E04420802A90032B50
:1001C300E04401F0E04402F0E04404F0E04408F0CD
:1001D300E04420801290032BE04401F0E04408F057
:1001E300E04410F0E04420F0E04440F0EA60030211
:1001F3000373EBB410004003020373900205F82865
:1002030028730202350202530202580202650202F7
:100213007A02028B0202A00202B90202CB0202E8B6
:1002230002030002031802032C02033802034C02E8
:10023300036090032CE04401F0E04402F0E0440446
:10024300F0E04408F0E04410F0E04420F0020373CF
:1002530090032C806890032CE04401F0E0440202F8
:10026300034290032CE04401F0E04402F0E0440434
:10027300F0E0440802036E90032CE04402F0E044F3
:1002830004F0E0442002036E90032CE04401F0E00C
:100293004404F0E04408F0E0442002036E90032C91
:1002A300E04401F0E04404F0E04408F0E04410F0DE
:1002B300E0442002036E90032CE04401F0E044028A
:1002C300F0E04404F002037390032CE04401F0E0F7
:1002D3004402F0E04404F0E04408F0E04410F0E0AD
:1002E300442002036E90032CE04401F0E04402F04A
:1002F300E04404F0E04408F0E04420806E90032CD6
:10030300E04401F0E04402F0E04404F0E04410F083
:10031300E04420805690032CE04404F0E04408F0CD
:10032300E04410F0E04420804290032CE04408F0C5
:10033300E04410803690032CE04402F0E04404F0E3
:10034300E04408F0E04410802290032CE04401F0E4
:10035300E04408F0E04410F0E04420800E90032CC9
:10036300E04401F0E04410F0E04420F0E04440F0C9
:10037300A20292AF22E709F608DFFA8046E709F204
:1003830008DFFA803E88828C83E709F0A3DFFA80D6
:1003930032E309F608DFFA8078E309F208DFFA802E
:1003A3007088828C83E309F0A3DFFA806489828AF0
:1003B30083E0A3F608DFFA805889828A83E0A3F2F8
:1003C30008DFFA804C80D280FA80C680D4806980AE
:1003D300F28033801080A680EA809A80A880DA8039
:1003E300E280CA803389828A83ECFAE493A3C8C586
:1003F30082C8CCC583CCF0A3C8C582C8CCC583CC86
:10040300DFE9DEE7800D89828A83E493A3F608DFC0
:10041300F9ECFAA9F0EDFB2289828A83ECFAE0A3D6
:10042300C8C582C8CCC583CCF0A3C8C582C8CCC517
:1004330083CCDFEADEE880DB89828A83E493A3F25C
:1004430008DFF980CC88F0EF60010E4E60C388F0BE
:10045300ED2402B4040050B9F582EB2402B4040085
:1004630050AF23234582239003C873BB01068982BF
:100473008A83E0225002E722BBFE02E32289828ABA
:1004830083E49322BB010CE58229F582E5833AF5E7
:1004930083E0225006E92582F8E622BBFE06E92521
:1004A30082F8E222E58229F582E5833AF583E49333
:1004B30022BB010689828A83F0225002F722BBFE07
:1004C30001F322F8BB010DE58229F582E5833AF5B4
:1004D30083E8F0225006E92582C8F622BBFE05E92F
:1004E3002582C8F222BC000BBE0029EF8DF084FFE9
:1004F300ADF022E4CCF875F008EF2FFFEE33FEECFD
:1005030033FCEE9DEC984005FCEE9DFE0FD5F0E923
:10051300E4CEFD22EDF8F5F0EE8420D21CFEADF022
:1005230075F008EF2FFFED33FD4007985006D5F027
:10053300F222C398FD0FD5F0EA22C5F0F8A3E02814
:10054300F0C5F0F8E582158270021583E038F022D9
:10055300A3F8E0C5F025F0F0E5821582700215835B
:10056300E0C838F0E822BB010A89828A83E0F5F00B
:10057300A3E022500687F009E71922BBFE07E3F543
:10058300F009E3192289828A83E493F5F0740193D5
:1005930022BB0110E58229F582E5833AF583E0F574
:1005A300F0A3E0225009E92582F886F008E622BB91
:1005B300FE0AE92582F8E2F5F008E222E5832AF54E
:1005C30083E993F5F0A3E99322BB010A89828A8325
:1005D300F0E5F0A3F0225006F709A7F01922BBFEBD
:1005E30006F3E5F009F31922F8BB0111E58229F5B9
:1005F30082E5833AF583E8F0E5F0A3F0225009E9B8
:100603002582C8F608A6F022BBFE09E92582C8F2B6
:10061300E5F008F222EB9FF5F0EA9E42F0E99D42F5
:10062300F0E89C45F022ECF0A3EDF0A3EEF0A3EF8D
:10063300F022C2B3C2B4C2B5C2B6C2B743B1085303
:10064300B2F743B11053B2EF43B12053B2DF43B11A
:100653004053B2BF43B18053B27F900344E0FF7E67
:1006630000704790032CE030E10853B1EF43B21020
:10067300D2B490032CE030E30853B1DF43B220D26D
:10068300B590032CE030E50853B1BF43B240D2B676
:1006930090032CE030E60853B17F43B280D2B753C6
:1006A300B1F743B208C2B30207C5EF64014E704706
:1006B30090032BE030E10853B1DF43B220D2B59071
:1006C300032BE030E30853B1BF43B240D2B69003EB
:1006D3002BE030E40853B17F43B280D2B790032CB0
:1006E300E030E00853B1F743B208D2B353B1EF435C
:1006F300B210C2B40207C5900344E0FF7E00640257
:10070300704690032BE030E00853B1EF43B210D2B0
:10071300B490032BE030E20853B1BF43B240D2B6EA
:1007230090032BE030E50853B17F43B280D2B790FA
:10073300032CE030E20853B1F743B208D2B353B10C
:10074300DF43B220C2B5807AEF64034E7046900354
:100753002CE030E40853B1F743B208D2B390032B33
:10076300E030E60853B17F43B280D2B790032AE06A
:1007730030E10853B1DF43B220D2B590032AE03011
:10078300E20853B1EF43B210D2B453B1BF43B24006
:10079300C2B6802E900344E06404702690032AE0DE
:1007A30030E00853B1DF43B220D2B590032AE030E2
:1007B300E30853B1EF43B210D2B453B17F43B280D5
:1007C300C2B7900344E004F0E0C3940574809480BE
:1007D3004002E4F022900345EBF0A3EAF0A3E9F032
:1007E300A3EDF07C00C39405EC940050057EFF7FDD
:1007F300FA22ED24FFFFEC34FFFE900345E0FBA358
:10080300E0FAA3E0F98F828E83120487FE74FE2D33
:10081300F58274FF3CF583120487FDEDFF900349D5
:10082300EEF0A3EFF0900348E024FEFD120B2490BA
:100833000349E06E7003A3E06F60057EFF7FFC2237
:10084300900345E0FBA3E0FAA3E0F912046E640110
:1008530060057EFF7FFB2290000112048730E714BE
:100863009000021204872464FFE433FEC3E49FFF75
:10087300E49EFE22900003120487FE9000041204FB
:1008830087FDEDFF900330EEF0A3EFF0900005122B
:100893000487FE900006120487FDEDFF900332EEFD
:1008A300F0A3EFF0900007120487FE9000081204F3
:1008B30087FDEDFF900334EEF0A3EFF090000912F3
:1008C3000487FE90000A120487FDEDFF900336EEC5
:1008D300F0A3EFF090000B120487FE90000C1204BB
:1008E30087FDEDFF900338EEF0A3EFF090000D12BB
:1008F3000487FE90000E120487FDEDFF90033AEE8D
:10090300F0A3EFF090000F120487FE900010120482
:1009130087FDEDFF90033CEEF0A3EFF09000111282
:100923000487FE900012120487FDEDFF90033EEE54
:10093300F0A3EFF0900013120487FE90001412044A
:1009430087FDEDFF900340EEF0A3EFF0900015124A
:100953000487FE900016120487FDEDFF900342EE1C
:10096300F0A3EFF0E4FEFF22E4900345F030003300
:10097300121083900000E0F8A3E0F9A3E0FAA3E0EB
:10098300FBC3EF9BFFEE9AFEED99FDEC98FCE47B35
:10099300D07A07F9F8D31206184003020A7AC20084
:1009A30053AFFED200C201900345E0FF04F074424E
:1009B3002FF582E43401F5837401F0900345E0FFE1
:1009C30004F074422FF582E43401F5837403F0904C
:1009D3000345E0FF04F074422FF582E43401F5830C
:1009E300E4F0900345E0FF04F074422FF582E43411
:1009F30001F5837468F0900345E0FF04F074422F1F
:100A0300F582E43401F583E4F0900345E0FF04F05C
:100A130074422FF582E43401F583740AF07B017A82
:100A2300017942900345E0FD120B24AD0790034585
:100A3300E0FC04F074422CF582E43401F583EDF01C
:100A4300EEFF900345E0FE04F074422EF582E43499
:100A530001F583EFF0121076E4900262F012108336
:100A63009000001206297B017A017942900345E048
:100A7300FD120ED743AF0122E4900348F0A3F078B0
:100A83004A7C037D017B017A037930FE7F021204E5
:100A93004890034AE07002A3E07030900342E0FF05
:100AA300A3E090032ECFF0A3EFF0D3E0940A9003DA
:100AB3002EE06480948090033AE0FE5007120046D3
:100AC3007F0280501200467F018049E4FDFCAF05A0
:100AD3007E007401A807088005C333CE33CED8F94E
:100AE300FF90034AE05EFEA3E05F4E600890034878
:100AF300ECF0A3EDF00DBD00010CED64104C70CED5
:100B0300900348E0FAA3E0FB7D0A7C00E4FFFE12B9
:100B130000B57F0312000E22F07B017A0179427D3A
:100B23000690034BEBF0A3EAF0A3E9F0A3EDF07416
:100B3300FFA3F0A3F0E4A3F090034EE0FF90035172
:100B4300E0FEC39F506390034BE0FBA3E0FAA3E0F6
:100B5300F98E82758300120487FF90034FE0F0A3A0
:100B6300E06FF0E4FDEDC3940874809480503290FC
:100B7300034FE0FEA3E0FF30E019EEC313FEEF13D3
:100B8300FFEE64A0FEEF6401FF90034FEEF0A3EFCE
:100B9300F0800B90034FE0C313F0A3E013F00D803C
:100BA300C4900351E004F0808F90034FE0FEA3E074
:100BB300FF22787FE4F6D8FD758120020BFC020F3B
:100BC30014E493A3F8E493A34003F68001F208DF4F
:100BD300F48029E493A3F85407240CC8C333C45402
:100BE3000F4420C8834004F456800146F6DFE480B6
:100BF3000B0102040810204080900D88E47E0193CD
:100C030060BCA3FF543F30E509541FFEE493A36087
:100C1300010ECF54C025E060A840B8E493A3FAE4E2
:100C230093A3F8E493A3C8C582C8CAC583CAF0A333
:100C3300C8C582C8CAC583CADFE9DEE780BE9003A0
:100C43005BE014601A14605F2402706320920690C4
:100C5300035B7401F0E4900355F0A3F0A3F02220AA
:100C63009217900357E0700204F0900356E004F0EB
:100C7300703D900355E004F022900357E0602BD3BE
:100C8300900356E09464900355E0940090035E4013
:100C93000C7402F0E4900355F0A3F080037401F0A8
:100CA30090035B7402F022309205E490035BF02220
:100CB300300067900262E0C394205041E0FD04F0ED
:100CC30074422DF582E43402F583EFF0900262E082
:100CD300C39402748094804041900243E030E7045F
:100CE3007E058024900262E0C39403748094804064
:100CF30029900244E02405FED39420400BC200E473
:100D0300900262F053AFFE22900262E0C39E400A5B
:100D1300C20053AFFEA3EEF0D20122C0E0C0F0C088
:100D230083C082C0D075D000C000C001C002C00320
:100D3300C004C005C006C0077CD4ECF58C758ACD11
:100D4300C28D900360E0FCA3E0FDA3E0FEA3E024DA
:100D530001FFE43EFEE43DFDE43CFC90036012062B
:100D6300299003647401F0120F50D007D006D00508
:100D7300D004D003D002D001D000D0D0D082D08311
:100D8300D0F0D0E03241032800410329004202643D
:100D93000000440360000000004103640041035F5E
:100DA3000041035B0041035E0042035C0000420319
:100DB3005500004103570042035900004103580006
:100DC30041026200C100C10141026300440000000E
:100DD3000000004103440041032A0041032B00416A
:100DE300032C0041032D0000300118C2017B017A5E
:100DF300027942900263E0FD1207D8EF4E7037FE8E
:100E03007F0122300035121083900000E0F8A3E048
:100E1300F9A3E0FAA3E0FBC3EF9BFFEE9AFEED9983
:100E2300FDEC98FCE47BD07A07F9F8D3120618504E
:100E33000AC20053AFFE7EFF7FFF22E4FEFF22C003
:100E4300E0C0F0C083C082C0D075D000C000C00134
:100E5300C002C003C004C005C006C007E59A30E065
:100E63000E900354E59BF0539AFEE0FF120CB3D0AF
:100E730007D006D005D004D003D002D001D000D0D3
:100E8300D0D082D083D0F0D0E03290035EE09003E4
:100E930045F0E064017011900358F0D295120A7B7B
:100EA3009003287401F08026900345E064027023C8
:100EB300C2031210539003587401F0D390032FE030
:100EC300943290032EE0648094805007C295E4909E
:100ED300035EF022900346EBF0A3EAF0A3E9F0A34C
:100EE300EDF0E4A3F0900349E0FFA3E0FEC39F50BD
:100EF3001F900346E0FBA3E0FAA3E0F98E8275831B
:100F030000120487FF12106790034AE004F080D5B3
:100F130022120003120F8C121020120FBD120FE6C3
:100F2300121006D2AF120E8D900328E0600D9003CD
:100F330058E07007900328F012096B900358E07093
:100F4300E4120DEBEF4E60DD120A7B80D8120635FA
:100F5300900329E004F0C3940A748094804008123B
:100F63000C41E4900329F0900264E475F00112054A
:100F73003DFEC3E5F094E8EE9403400CE490026474
:100F8300F0A3F090032804F02253BAFEE59254FC38
:100F93004402F5925391FC90FE11E054FCF0759AD3
:100FA30050438E04538EEF7FE87EFF8FD7EEF5D646
:100FB300539AFC43AF01438E102253B1F743B20857
:100FC30053B1EF43B21053B1DF43B22053B1BF4328
:100FD300B24053B17F43B280C2B3C2B4C2B5C2B64A
:100FE300C2B722C2955391DF439220C29543910425
:100FF3005392FBE490035BF090035EF090035CF08C
:10100300A3F0227CD45389F0438901438E80ECF50D
:101013008C758ACDC28DD2A9D2B9D28C2253A23F6C
:10102300759850438E4053890F438920758DB4853D
:101033008D8BD28EC29922A2AF9202C2AF9003606F
:10104300E0FCA3E0FDA3E0FEA3E0FFA20292AF2237
:1010530030030790032A74FF8004E490032AF0A36B
:10106300F0A3F022539AFD8F9BE59A540260FA5342
:101073009AFD22E59A30E007AF9B539AFE80F42253
:0310830002103A1E
:00000001FF
